:020000020000FC
:0E0000000C9447000C9434000C943D001895AD
:02001000189541
:0200140018953D
:02001800189539
:02001C00189535
:02002000189531
:0200240018952D
:02002800189529
:02002C00189525
:02003000189521
:0200340018951D
:02003800189519
:02003C00189515
:02004000189511
:0200440018950D
:02004800189509
:02004C00189505
:02005000189501
:020054001895FD
:020058001895F9
:02005C001895F5
:020060001895F1
:020064001895ED
:10006800839593958A3311F4739580E3953809F055
:1000780018958A959A958F3229F489E37A957F3273
:1000880009F418D018950FEF0DBF08E00EBF03E074
:100098000DBB0AE0009369007894002707B91BD0CC
:1000A80009D0359B07D0709300028093010212E0BB
:1000B80005D0F7CF70E380E396E0089500E85ED0BE
:1000C80041D05CD0F2E0EE2701913FD05CD01A9588
:1000D8001030D1F70895549A559A569A579A209AFB
:1000E800219A51D050D04FD04ED04DD04CD000E3B3
:1000F80037D049D035D047D000E232D044D000E2E2
:1001080021D041D008E21ED03ED008E01BD03BD021
:1001180001E018D038D006E015D035D00CE012D068
:10012800089504FF5C9804FD5C9A05FF5D9805FD41
:100138005D9A06FF5E9806FD5E9A07FF5F9807FDC9
:100148005F9A0895289804D00895289A01D00895B0
:10015800299AE7DF29980295299AE3DF29980895D3
:100168002898DFDF299A29980027089531E43A95DD
:10017800F1F70895FBDFFADFF9DF089544E6F6DFCB
:100188004A95E9F7089540E0F5DF4A95E9F70895BB
:00000001FF
