:020000020000FC
:040000000C94340028
:040040000C9490008C
:100068000FEF0DBF08E00EBF03E000936E00789419
:1000780040E046BD02E004BD05E005BD03EF0AB956
:100088000FE304B900E007B925E5442755273327CE
:1000980076B17030D1F37033C1F33517F1F776B11B
:1000A800703119F0703219F004C007D002C019D0AD
:1000B80000C025D08BB995B9EACF613049F000E08E
:1000C80018E061E00CE707BD332746BD59E108C0D9
:1000D8001795079528F41795179517951795179558
:1000E8000895623049F00AEA1AE062E006E907BDBD
:1000F800332746BD57E702C0022712270895802FED
:10010800912F880F991F880F991FA82F807FAF7094
:0E011800A695A6958A2B0895339546BD189599
:00000001FF
