:020000020000FC
:1000000003EF0AB90FE304B900E007B90AEA1AE0FE
:1000100025E58827992776B1703119F0703219F0EB
:1000200004C012D002C022D000C0802F912F880FB0
:10003000991F880F991FA82F807FAF70A695A6954E
:100040008A2B8BB995B9E7CF30E044EC59E026F024
:1000500000E018E0689409C01795079528F41795F3
:1000600017951795179517950DD0089530E047E22D
:1000700058E326F40AEA1AE0E89403C0022712279C
:0E00800001D00895315040405040E0F70895FF
:00000001FF
