:020000020000FC
:040000000C94340028
:040040000C947100AB
:100068000FEF0DBF08E00EBF01E000936E0078941B
:1000780040E046BD0DE005BD0DE707BD00E008BD49
:1000880003EF0AB90FE304B900E007B90AEA1AE076
:1000980025E544273327552776B17030D9F37033D7
:1000A800C9F33517C9F776B1703119F0703219F004
:1000B80004C016D002C024D000C0802F912F880F12
:1000C800991F880F991FA82F807FAF70A695A695B6
:1000D8008A2B8BB995B93327DFCF339546BD189551
:1000E80059E1332726F000E018E0689408C0179516
:1000F800079528F417951795179517951795089547
:1001080050E9332726F40AEA1AE0E89402C00227E5
:04011800122708950D
:00000001FF
