:020000020000FC
:0200000033C00B
:0200540020C0CA
:100068000FEF0DBF08E00EBF0FEF0AB90EE107B999
:10007800789420E130EF4FE069E08CE091E0AFEF59
:1000880000E400937C000FEC00937A00FFCF1091FE
:1000980078000091790007D07BB900917A0000645C
:1000A80000937A001895202E312E3118200810F070
:1000B800E89405C06894202C312C311A200A002EAF
:1000C800112E432C381A28F016F012D0FACF1AD075
:1000D800F8CF540C291A10F03A2EF3CF452C581AA1
:1000E80028F016F005D0FACF0DD0F8CF542C08958B
:1000F800753839F07395572F54235A3011F4720F0D
:1001080073230895703049F07A95572F5423541764
:0C01180021F473957323760F721B089579
:00000001FF
