:020000020000FC
:0E0000000C9438000C9434000C9436001895C3
:02001000189541
:0200140018953D
:02001800189539
:02001C00189535
:02002000189531
:0200240018952D
:02002800189529
:02002C00189525
:02003000189521
:0200340018951D
:02003800189519
:02003C00189515
:02004000189511
:0200440018950D
:02004800189509
:02004C00189505
:02005000189501
:020054001895FD
:020058001895F9
:02005C001895F5
:020060001895F1
:020064001895ED
:1000680021D018951FD018950FEF0DBF08E00EBFCF
:1000780003E00DBB0AE000936900789400E007B93B
:1000880000EF0AB90FE004B912E420E130EF4FE0C5
:1000980069E077279927359B12E4972F77271BB9B3
:1000A80015B9F9CF79B1742376957695903039F0F2
:1000B800913051F0923069F0933081F008957230A8
:1000C80091F0713091F0FACF703069F0733069F0C7
:1000D800F5CF733041F0703041F0F0CF713019F046
:1000E800723019F0EBCF03D0E9CF0BD0E7CF15383A
:1000F80039F01395512F54235A3011F4120F13234A
:100108000895103049F01A95512F5423541721F4AB
:0A01180013951323160F121B089510
:00000001FF
